{
  "contractName": "Sorteos",
  "abi": [
    {
      "inputs": [],
      "stateMutability": "nonpayable",
      "type": "constructor"
    },
    {
      "anonymous": false,
      "inputs": [
        {
          "indexed": false,
          "internalType": "uint256",
          "name": "idSorteo",
          "type": "uint256"
        }
      ],
      "name": "__addPlayer",
      "type": "event"
    },
    {
      "anonymous": false,
      "inputs": [
        {
          "indexed": false,
          "internalType": "string",
          "name": "_nameGame",
          "type": "string"
        },
        {
          "indexed": false,
          "internalType": "uint256",
          "name": "_maxPlayers",
          "type": "uint256"
        },
        {
          "indexed": false,
          "internalType": "uint256",
          "name": "_players",
          "type": "uint256"
        },
        {
          "indexed": false,
          "internalType": "uint256",
          "name": "_premio",
          "type": "uint256"
        },
        {
          "indexed": false,
          "internalType": "bool",
          "name": "_active",
          "type": "bool"
        },
        {
          "indexed": false,
          "internalType": "address",
          "name": "_ownerSorteo",
          "type": "address"
        }
      ],
      "name": "__addSorteo",
      "type": "event"
    },
    {
      "anonymous": false,
      "inputs": [
        {
          "indexed": false,
          "internalType": "address",
          "name": "win",
          "type": "address"
        },
        {
          "indexed": false,
          "internalType": "uint256",
          "name": "number",
          "type": "uint256"
        }
      ],
      "name": "__ganador",
      "type": "event"
    },
    {
      "inputs": [],
      "name": "getIdsSorteos",
      "outputs": [
        {
          "internalType": "string",
          "name": "",
          "type": "string"
        }
      ],
      "stateMutability": "view",
      "type": "function"
    },
    {
      "inputs": [
        {
          "internalType": "uint256",
          "name": "_id",
          "type": "uint256"
        },
        {
          "internalType": "string",
          "name": "_nameGame",
          "type": "string"
        },
        {
          "internalType": "uint256",
          "name": "_maxPlayers",
          "type": "uint256"
        }
      ],
      "name": "addSorteo",
      "outputs": [],
      "stateMutability": "payable",
      "type": "function"
    },
    {
      "inputs": [
        {
          "internalType": "uint256",
          "name": "_id",
          "type": "uint256"
        }
      ],
      "name": "getSorteo",
      "outputs": [
        {
          "internalType": "string",
          "name": "_nameGame",
          "type": "string"
        },
        {
          "internalType": "uint256",
          "name": "_maxPlayers",
          "type": "uint256"
        },
        {
          "internalType": "uint256",
          "name": "_players",
          "type": "uint256"
        },
        {
          "internalType": "uint256",
          "name": "_premio",
          "type": "uint256"
        },
        {
          "internalType": "bool",
          "name": "_active",
          "type": "bool"
        },
        {
          "internalType": "address",
          "name": "_ownerSorteo",
          "type": "address"
        }
      ],
      "stateMutability": "view",
      "type": "function"
    },
    {
      "inputs": [
        {
          "internalType": "uint256",
          "name": "_id",
          "type": "uint256"
        }
      ],
      "name": "addPlayer",
      "outputs": [],
      "stateMutability": "payable",
      "type": "function"
    },
    {
      "inputs": [
        {
          "internalType": "uint256",
          "name": "_id",
          "type": "uint256"
        }
      ],
      "name": "sortear",
      "outputs": [],
      "stateMutability": "payable",
      "type": "function"
    }
  ],
  "bytecode": "0x608060405234801561001057600080fd5b50336000806101000a81548173ffffffffffffffffffffffffffffffffffffffff021916908373ffffffffffffffffffffffffffffffffffffffff160217905550611198806100606000396000f3fe60806040526004361061004a5760003560e01c806308eea5121461004f578063d29e62d81461007d578063ec4a8b171461016c578063f35dc28c1461019a578063f3de367f1461022a575b600080fd5b61007b6004803603602081101561006557600080fd5b81019080803590602001909291905050506102f9565b005b34801561008957600080fd5b506100b6600480360360208110156100a057600080fd5b8101908080359060200190929190505050610516565b604051808060200187815260200186815260200185815260200184151581526020018373ffffffffffffffffffffffffffffffffffffffff168152602001828103825288818151815260200191508051906020019080838360005b8381101561012c578082015181840152602081019050610111565b50505050905090810190601f1680156101595780820380516001836020036101000a031916815260200191505b5097505050505050505060405180910390f35b6101986004803603602081101561018257600080fd5b81019080803590602001909291905050506106fa565b005b3480156101a657600080fd5b506101af6108ed565b6040518080602001828103825283818151815260200191508051906020019080838360005b838110156101ef5780820151818401526020810190506101d4565b50505050905090810190601f16801561021c5780820380516001836020036101000a031916815260200191505b509250505060405180910390f35b6102f76004803603606081101561024057600080fd5b81019080803590602001909291908035906020019064010000000081111561026757600080fd5b82018360208201111561027957600080fd5b8035906020019184600183028401116401000000008311171561029b57600080fd5b91908080601f016020809104026020016040519081016040528093929190818152602001838380828437600081840152601f19601f82011690508083019250505050505050919291929080359060200190929190505050610999565b005b80336001600083815260200190815260200160002060000160009054906101000a900473ffffffffffffffffffffffffffffffffffffffff1673ffffffffffffffffffffffffffffffffffffffff168173ffffffffffffffffffffffffffffffffffffffff16146103b5576040517f08c379a000000000000000000000000000000000000000000000000000000000815260040180806020018281038252602881526020018061113b6028913960400191505060405180910390fd5b60006103c084610d2d565b905060006001600086815260200190815260200160002060040182815481106103e557fe5b9060005260206000200160009054906101000a900473ffffffffffffffffffffffffffffffffffffffff16905060006001600087815260200190815260200160002060050160006101000a81548160ff021916908315150217905550600060016000878152602001908152602001600020600301819055508073ffffffffffffffffffffffffffffffffffffffff166108fc60016000888152602001908152602001600020600301549081150290604051600060405180830381858888f193505050501580156104b9573d6000803e3d6000fd5b507f254622d4197354d7dcfc1d33a89b72a1f5b9f2973ea90ab0d80ab890e2930f4b8183604051808373ffffffffffffffffffffffffffffffffffffffff1681526020018281526020019250505060405180910390a15050505050565b60606000806000806000600160008881526020019081526020016000206001018054600181600116156101000203166002900480601f0160208091040260200160405190810160405280929190818152602001828054600181600116156101000203166002900480156105ca5780601f1061059f576101008083540402835291602001916105ca565b820191906000526020600020905b8154815290600101906020018083116105ad57829003601f168201915b505050505095506001600088815260200190815260200160002060020154945060016000888152602001908152602001600020600401805490509350600160008881526020019081526020016000206003015492506001600088815260200190815260200160002060050160009054906101000a900460ff1691503373ffffffffffffffffffffffffffffffffffffffff166001600089815260200190815260200160002060000160009054906101000a900473ffffffffffffffffffffffffffffffffffffffff1673ffffffffffffffffffffffffffffffffffffffff16146106b757600090506106f1565b6001600088815260200190815260200160002060000160009054906101000a900473ffffffffffffffffffffffffffffffffffffffff1690505b91939550919395565b80600115156001600083815260200190815260200160002060050160009054906101000a900460ff16151514610798576040517f08c379a00000000000000000000000000000000000000000000000000000000081526004018080602001828103825260158152602001807f536f7274656f206e6f20646973706f6e69626c652e000000000000000000000081525060200191505060405180910390fd5b3467016345785d8a00008111610816576040517f08c379a00000000000000000000000000000000000000000000000000000000081526004018080602001828103825260138152602001807f53616c646f20696e737566696369656e74652e0000000000000000000000000081525060200191505060405180910390fd5b60016000848152602001908152602001600020600401339080600181540180825580915050600190039060005260206000200160009091909190916101000a81548173ffffffffffffffffffffffffffffffffffffffff021916908373ffffffffffffffffffffffffffffffffffffffff1602179055503460016000858152602001908152602001600020600301600082825401925050819055507fd848da4566e5d76303c10907d1bd71671a8af2dc78a1d967e0ff7a3c2da69847836040518082815260200191505060405180910390a1505050565b60608060405180602001604052806000815250905060005b6002805490508110156109915760606109346002838154811061092457fe5b9060005260206000200154610dab565b90506109408382610f42565b9250610981836040518060400160405280600181526020017f2c00000000000000000000000000000000000000000000000000000000000000815250610f42565b9250508080600101915050610905565b508091505090565b3467016345785d8a00008111610a17576040517f08c379a00000000000000000000000000000000000000000000000000000000081526004018080602001828103825260138152602001807f53616c646f20696e737566696369656e74652e0000000000000000000000000081525060200191505060405180910390fd5b8160008111610a8e576040517f08c379a00000000000000000000000000000000000000000000000000000000081526004018080602001828103825260198152602001807f6e65636573697461206d696e696d6f20756e20706c617965720000000000000081525060200191505060405180910390fd5b8460005b600280549050811015610b39578160028281548110610aad57fe5b90600052602060002001541415610b2c576040517f08c379a000000000000000000000000000000000000000000000000000000000815260040180806020018281038252600c8152602001807f696420796120657869737465000000000000000000000000000000000000000081525060200191505060405180910390fd5b8080600101915050610a92565b50600286908060018154018082558091505060019003906000526020600020016000909190919091505584600160008881526020019081526020016000206001019080519060200190610b8d92919061109d565b50836001600088815260200190815260200160002060020181905550346001600088815260200190815260200160002060030181905550336001600088815260200190815260200160002060000160006101000a81548173ffffffffffffffffffffffffffffffffffffffff021916908373ffffffffffffffffffffffffffffffffffffffff160217905550600180600088815260200190815260200160002060050160006101000a81548160ff0219169083151502179055507f6123f653f8bba524d37781d924520bf11c0d6dac77d9c5922e380cc96bbed7578585600034600133604051808060200187815260200186815260200185815260200184151581526020018373ffffffffffffffffffffffffffffffffffffffff168152602001828103825288818151815260200191508051906020019080838360005b83811015610ce6578082015181840152602081019050610ccb565b50505050905090810190601f168015610d135780820380516001836020036101000a031916815260200191505b5097505050505050505060405180910390a1505050505050565b60006001600083815260200190815260200160002060040180549050423384604051602001808481526020018373ffffffffffffffffffffffffffffffffffffffff1660601b815260140182815260200193505050506040516020818303038152906040528051906020012060001c81610da357fe5b069050919050565b606060006064905060608167ffffffffffffffff81118015610dcc57600080fd5b506040519080825280601f01601f191660200182016040528015610dff5781602001600182028036833780820191505090505b50905060005b60008514610e77576000600a8681610e1957fe5b069050600a8681610e2657fe5b0495508060300160f81b838380600101945081518110610e4257fe5b60200101907effffffffffffffffffffffffffffffffffffffffffffffffffffffffffffff1916908160001a90535050610e05565b60608167ffffffffffffffff81118015610e9057600080fd5b506040519080825280601f01601f191660200182016040528015610ec35781602001600182028036833780820191505090505b50905060005b82811015610f35578381600185030381518110610ee257fe5b602001015160f81c60f81b828281518110610ef957fe5b60200101907effffffffffffffffffffffffffffffffffffffffffffffffffffffffffffff1916908160001a9053508080600101915050610ec9565b5080945050505050919050565b60608083905060608390506060815183510167ffffffffffffffff81118015610f6a57600080fd5b506040519080825280601f01601f191660200182016040528015610f9d5781602001600182028036833780820191505090505b5090506060819050600080600091505b855182101561101b57858281518110610fc257fe5b602001015160f81c60f81b838280600101935081518110610fdf57fe5b60200101907effffffffffffffffffffffffffffffffffffffffffffffffffffffffffffff1916908160001a9053508180600101925050610fad565b600091505b845182101561108e5784828151811061103557fe5b602001015160f81c60f81b83828060010193508151811061105257fe5b60200101907effffffffffffffffffffffffffffffffffffffffffffffffffffffffffffff1916908160001a9053508180600101925050611020565b82965050505050505092915050565b828054600181600116156101000203166002900490600052602060002090601f016020900481019282601f106110de57805160ff191683800117855561110c565b8280016001018555821561110c579182015b8281111561110b5782518255916020019190600101906110f0565b5b509050611119919061111d565b5090565b5b8082111561113657600081600090555060010161111e565b509056fe4e6f2065726573206f776e6572207061726120656a65637574617220657374612066756e63696f6ea2646970667358221220aa23b5e0245f0e904aefaec3441d033bde8a2023a9070ca3d72424dbbc7d8b3564736f6c634300060c0033",
  "immutableReferences": {},
  "source": "//SPDX-License-Identifier: UNLICENSED\r\npragma solidity >= 0.4.4 < 0.7.0;\r\n\r\n\r\n\r\ncontract Sorteos{\r\n\r\n    //1,\"TEST1\",5\r\n    address owner;\r\n    \r\n    mapping(uint256 => Sorteo) sorteos;\r\n\r\n    event __addPlayer(uint256 idSorteo);\r\n    event __addSorteo(string _nameGame, uint256 _maxPlayers, uint256 _players, uint256 _premio, bool _active,address _ownerSorteo);\r\n    event __ganador(address win, uint number);\r\n\r\n    uint256[]  idSorteos;\r\n\r\n    struct Sorteo {\r\n        address ownerSorteo;\r\n        string nameGame;\r\n        uint256 maxPlayers;\r\n        uint256 premio;\r\n        address[] players;\r\n        bool active;\r\n    }\r\n\r\n    constructor() public {\r\n        owner = msg.sender;\r\n    }\r\n\r\n    modifier onlyOwner(address _direccion){\r\n        require(_direccion == owner,\"No tienes permisos para ejecutar esta funcion\");\r\n        _;\r\n    }\r\n\r\n    modifier onlyOwnerSorteo(uint256 _id,address _direccion){\r\n        require(_direccion == sorteos[_id].ownerSorteo,\"No eres owner para ejecutar esta funcion\");\r\n        _;\r\n    }\r\n\r\n    modifier sorteoActive(uint256 _id){\r\n        require(sorteos[_id].active == true, \"Sorteo no disponible.\");\r\n        _;\r\n    }\r\n\r\n    modifier minPayPlayGame(uint256 _money){\r\n        require(_money > 0.1 ether, \"Saldo insuficiente.\");\r\n        _;\r\n    }\r\n\r\n    modifier requirePlayers(uint256 _maxPlayers){\r\n        require(_maxPlayers > 0, \"necesita minimo un player\");\r\n        _;\r\n    }\r\n\r\n    modifier existSorteo(uint256 _id){\r\n        for(uint i=0; i < idSorteos.length; i++) {\r\n            require(idSorteos[i] != _id, \"id ya existe\");\r\n        }\r\n        _;\r\n    }\r\n\r\n    function getIdsSorteos() public view returns(string memory){\r\n        string memory listado = \"\";\r\n        for(uint i=0; i < idSorteos.length; i++) {\r\n            string memory obj = uintToString(idSorteos[i]);\r\n            \r\n            listado = concat(listado,obj);\r\n            listado = concat(listado,\",\");\r\n        }\r\n        return listado;\r\n    }\r\n\r\n    function concat(string memory _x, string memory _y) pure internal returns (string memory) {\r\n        bytes memory _xBytes = bytes(_x);\r\n        bytes memory _yBytes = bytes(_y);\r\n        \r\n        string memory _tmpValue = new string(_xBytes.length + _yBytes.length);\r\n        bytes memory _newValue = bytes(_tmpValue);\r\n        \r\n        uint i;\r\n        uint j;\r\n        \r\n        for(i=0;i<_xBytes.length;i++) {\r\n            _newValue[j++] = _xBytes[i];\r\n        }\r\n        \r\n        for(i=0;i<_yBytes.length;i++) {\r\n            _newValue[j++] = _yBytes[i];\r\n        }\r\n        \r\n        return string(_newValue);\r\n    }\r\n\r\n    function uintToString(uint v) internal pure returns (string memory) {\r\n        uint maxlength = 100;\r\n        bytes memory reversed = new bytes(maxlength);\r\n        uint i = 0;\r\n        while (v != 0) {\r\n            uint remainder = v % 10;\r\n            v = v / 10;\r\n            reversed[i++] = byte(uint8(48 + remainder));\r\n        }\r\n        bytes memory s = new bytes(i);\r\n        for (uint j = 0; j < i; j++) {\r\n            s[j] = reversed[i - 1 - j];\r\n        }\r\n        return string(s);\r\n    }\r\n\r\n    function addSorteo(uint256 _id, string memory _nameGame, uint256 _maxPlayers) external payable minPayPlayGame(msg.value) requirePlayers(_maxPlayers) existSorteo(_id){\r\n        idSorteos.push(_id);\r\n        sorteos[_id].nameGame = _nameGame;\r\n        sorteos[_id].maxPlayers = _maxPlayers;\r\n        sorteos[_id].premio = msg.value;\r\n        sorteos[_id].ownerSorteo = msg.sender;\r\n        sorteos[_id].active = true;\r\n        emit __addSorteo(_nameGame, _maxPlayers, 0, msg.value, true, msg.sender);\r\n    }\r\n\r\n    function getSorteo(uint256 _id) external view returns(string memory _nameGame, uint256 _maxPlayers, uint256 _players, uint256 _premio, bool _active,address _ownerSorteo) {\r\n        _nameGame = sorteos[_id].nameGame;\r\n        _maxPlayers = sorteos[_id].maxPlayers;\r\n        _players = sorteos[_id].players.length;\r\n        _premio = sorteos[_id].premio;\r\n        _active = sorteos[_id].active;\r\n\r\n        if(sorteos[_id].ownerSorteo != msg.sender){\r\n            _ownerSorteo = address(0);\r\n        }else{\r\n            _ownerSorteo = sorteos[_id].ownerSorteo;\r\n        }\r\n    }\r\n\r\n    function addPlayer(uint256 _id) external payable sorteoActive(_id) minPayPlayGame(msg.value){\r\n        sorteos[_id].players.push(msg.sender);\r\n        sorteos[_id].premio += msg.value;\r\n        emit __addPlayer(_id);\r\n    }\r\n\r\n    function sortear(uint256 _id) external payable onlyOwnerSorteo(_id,msg.sender){\r\n        uint nwin = _random(_id);\r\n        address win = sorteos[_id].players[nwin];\r\n        sorteos[_id].active = false;\r\n        sorteos[_id].premio = 0;\r\n        payable(win).transfer(sorteos[_id].premio);\r\n        emit __ganador(win,nwin);\r\n    }\r\n\r\n    function _random(uint256 _id) private view returns (uint){\r\n       return uint(keccak256(abi.encodePacked(block.timestamp,msg.sender,_id))) % sorteos[_id].players.length;\r\n    }\r\n}\r\n",
  "sourcePath": "C:\\Users\\jkind\\Desktop\\cryptos\\curso\\sorteos\\contracts\\Sorteos.sol",
  "compiler": {
    "name": "solc",
    "version": "0.6.12+commit.27d51765.Emscripten.clang"
  },
  "schemaVersion": "3.4.4",
  "updatedAt": "2022-02-25T12:57:40.230Z",
  "devdoc": {
    "kind": "dev",
    "methods": {},
    "version": 1
  },
  "userdoc": {
    "kind": "user",
    "methods": {},
    "version": 1
  }
}